{
  "contractName": "Election",
  "abi": [
    {
      "inputs": [],
      "stateMutability": "nonpayable",
      "type": "constructor"
    },
    {
      "inputs": [],
      "name": "active",
      "outputs": [
        {
          "internalType": "bool",
          "name": "",
          "type": "bool"
        }
      ],
      "stateMutability": "view",
      "type": "function",
      "constant": true
    },
    {
      "inputs": [],
      "name": "admin",
      "outputs": [
        {
          "internalType": "address",
          "name": "",
          "type": "address"
        }
      ],
      "stateMutability": "view",
      "type": "function",
      "constant": true
    },
    {
      "inputs": [
        {
          "internalType": "uint256",
          "name": "",
          "type": "uint256"
        }
      ],
      "name": "candidates",
      "outputs": [
        {
          "internalType": "uint256",
          "name": "candidateId",
          "type": "uint256"
        },
        {
          "internalType": "string",
          "name": "name",
          "type": "string"
        },
        {
          "internalType": "uint256",
          "name": "voteCount",
          "type": "uint256"
        },
        {
          "internalType": "string",
          "name": "url",
          "type": "string"
        }
      ],
      "stateMutability": "view",
      "type": "function",
      "constant": true
    },
    {
      "inputs": [],
      "name": "end",
      "outputs": [
        {
          "internalType": "uint256",
          "name": "",
          "type": "uint256"
        }
      ],
      "stateMutability": "view",
      "type": "function",
      "constant": true
    },
    {
      "inputs": [],
      "name": "registeredCandidates",
      "outputs": [
        {
          "internalType": "uint256",
          "name": "",
          "type": "uint256"
        }
      ],
      "stateMutability": "view",
      "type": "function",
      "constant": true
    },
    {
      "inputs": [],
      "name": "registeredVoters",
      "outputs": [
        {
          "internalType": "uint256",
          "name": "",
          "type": "uint256"
        }
      ],
      "stateMutability": "view",
      "type": "function",
      "constant": true
    },
    {
      "inputs": [],
      "name": "start",
      "outputs": [
        {
          "internalType": "uint256",
          "name": "",
          "type": "uint256"
        }
      ],
      "stateMutability": "view",
      "type": "function",
      "constant": true
    },
    {
      "inputs": [],
      "name": "voteCount",
      "outputs": [
        {
          "internalType": "uint256",
          "name": "",
          "type": "uint256"
        }
      ],
      "stateMutability": "view",
      "type": "function",
      "constant": true
    },
    {
      "inputs": [
        {
          "internalType": "uint256",
          "name": "",
          "type": "uint256"
        }
      ],
      "name": "voters",
      "outputs": [
        {
          "internalType": "string",
          "name": "_name",
          "type": "string"
        },
        {
          "internalType": "address",
          "name": "_address",
          "type": "address"
        },
        {
          "internalType": "bool",
          "name": "_vote",
          "type": "bool"
        }
      ],
      "stateMutability": "view",
      "type": "function",
      "constant": true
    },
    {
      "inputs": [
        {
          "internalType": "string",
          "name": "_name",
          "type": "string"
        },
        {
          "internalType": "string",
          "name": "_url",
          "type": "string"
        }
      ],
      "name": "addCandidate",
      "outputs": [],
      "stateMutability": "nonpayable",
      "type": "function"
    },
    {
      "inputs": [
        {
          "internalType": "string",
          "name": "_name",
          "type": "string"
        },
        {
          "internalType": "address",
          "name": "_voterAddress",
          "type": "address"
        }
      ],
      "name": "addVoter",
      "outputs": [],
      "stateMutability": "nonpayable",
      "type": "function"
    },
    {
      "inputs": [
        {
          "internalType": "uint256",
          "name": "_candidateId",
          "type": "uint256"
        }
      ],
      "name": "vote",
      "outputs": [],
      "stateMutability": "nonpayable",
      "type": "function"
    },
    {
      "inputs": [],
      "name": "getVoterIndex",
      "outputs": [
        {
          "internalType": "uint256",
          "name": "_voterIndex",
          "type": "uint256"
        }
      ],
      "stateMutability": "view",
      "type": "function",
      "constant": true
    },
    {
      "inputs": [],
      "name": "setState",
      "outputs": [],
      "stateMutability": "nonpayable",
      "type": "function"
    },
    {
      "inputs": [
        {
          "internalType": "uint256",
          "name": "time",
          "type": "uint256"
        }
      ],
      "name": "startElection",
      "outputs": [],
      "stateMutability": "nonpayable",
      "type": "function"
    },
    {
      "inputs": [],
      "name": "resetElection",
      "outputs": [],
      "stateMutability": "nonpayable",
      "type": "function"
    },
    {
      "inputs": [],
      "name": "getTimeLeft",
      "outputs": [
        {
          "internalType": "uint256",
          "name": "",
          "type": "uint256"
        }
      ],
      "stateMutability": "view",
      "type": "function",
      "constant": true
    }
  ],
  "bytecode": "0x608060405260006003556000600455600060055534801561001f57600080fd5b50336000806101000a81548173ffffffffffffffffffffffffffffffffffffffff021916908373ffffffffffffffffffffffffffffffffffffffff1602179055506117f38061006f6000396000f3fe608060405234801561001057600080fd5b506004361061010b5760003560e01c80636d32dc4b116100a2578063c7e284b811610071578063c7e284b814610271578063da58c7d91461028f578063e8f30523146102c1578063efbe1c1c146102cb578063f851a440146102e95761010b565b80636d32dc4b146101fb578063be9a655514610217578063bfb161d714610235578063c6384071146102535761010b565b80631dd26948116100de5780631dd269481461017257806326541b56146101905780633477ee2e146101ac5780635607395b146101df5761010b565b80630121b93f1461011057806302fb0c5e1461012c5780631203402f1461014a578063149e4bbb14610154575b600080fd5b61012a60048036038101906101259190610c8e565b610307565b005b610134610527565b6040516101419190610cd6565b60405180910390f35b61015261053a565b005b61015c610566565b6040516101699190610d00565b60405180910390f35b61017a61056c565b6040516101879190610d00565b60405180910390f35b6101aa60048036038101906101a59190610e61565b610607565b005b6101c660048036038101906101c19190610c8e565b61077d565b6040516101d69493929190610f61565b60405180910390f35b6101f960048036038101906101f49190611012565b6108bd565b005b61021560048036038101906102109190610c8e565b610a80565b005b61021f610ac5565b60405161022c9190610d00565b60405180910390f35b61023d610acb565b60405161024a9190610d00565b60405180910390f35b61025b610ad1565b6040516102689190610d00565b60405180910390f35b610279610ad7565b6040516102869190610d00565b60405180910390f35b6102a960048036038101906102a49190610c8e565b610aff565b6040516102b89392919061107d565b60405180910390f35b6102c9610bde565b005b6102d3610c1a565b6040516102e09190610d00565b60405180910390f35b6102f1610c20565b6040516102fe91906110bb565b60405180910390f35b60075442111561034c576040517f08c379a000000000000000000000000000000000000000000000000000000000815260040161034390611122565b60405180910390fd5b600060149054906101000a900460ff1661039b576040517f08c379a00000000000000000000000000000000000000000000000000000000081526004016103929061118e565b60405180910390fd5b60006103a561056c565b9050600073ffffffffffffffffffffffffffffffffffffffff166002600083815260200190815260200160002060010160009054906101000a900473ffffffffffffffffffffffffffffffffffffffff1673ffffffffffffffffffffffffffffffffffffffff160361044c576040517f08c379a0000000000000000000000000000000000000000000000000000000008152600401610443906111fa565b60405180910390fd5b6002600082815260200190815260200160002060010160149054906101000a900460ff16156104b0576040517f08c379a00000000000000000000000000000000000000000000000000000000081526004016104a790611266565b60405180910390fd5b60016002600083815260200190815260200160002060010160146101000a81548160ff021916908315150217905550600160008381526020019081526020016000206002016000815480929190610506906112b5565b91905055506005600081548092919061051e906112b5565b91905055505050565b600060149054906101000a900460ff1681565b600060149054906101000a900460ff1615600060146101000a81548160ff021916908315150217905550565b60035481565b6000806000600190505b60045481116105ff573373ffffffffffffffffffffffffffffffffffffffff166002600083815260200190815260200160002060010160009054906101000a900473ffffffffffffffffffffffffffffffffffffffff1673ffffffffffffffffffffffffffffffffffffffff16036105ec578091505b80806105f7906112b5565b915050610576565b508091505090565b3373ffffffffffffffffffffffffffffffffffffffff1660008054906101000a900473ffffffffffffffffffffffffffffffffffffffff1673ffffffffffffffffffffffffffffffffffffffff1614610695576040517f08c379a000000000000000000000000000000000000000000000000000000000815260040161068c90611349565b60405180910390fd5b600060149054906101000a900460ff16156106e5576040517f08c379a00000000000000000000000000000000000000000000000000000000081526004016106dc906113db565b60405180910390fd5b600360008154809291906106f8906112b5565b91905055506040518060800160405280600354815260200183815260200160008152602001828152506001600060035481526020019081526020016000206000820151816000015560208201518160010190816107559190611607565b506040820151816002015560608201518160030190816107759190611607565b509050505050565b60016020528060005260406000206000915090508060000154908060010180546107a69061142a565b80601f01602080910402602001604051908101604052809291908181526020018280546107d29061142a565b801561081f5780601f106107f45761010080835404028352916020019161081f565b820191906000526020600020905b81548152906001019060200180831161080257829003601f168201915b50505050509080600201549080600301805461083a9061142a565b80601f01602080910402602001604051908101604052809291908181526020018280546108669061142a565b80156108b35780601f10610888576101008083540402835291602001916108b3565b820191906000526020600020905b81548152906001019060200180831161089657829003601f168201915b5050505050905084565b3373ffffffffffffffffffffffffffffffffffffffff1660008054906101000a900473ffffffffffffffffffffffffffffffffffffffff1673ffffffffffffffffffffffffffffffffffffffff161461094b576040517f08c379a000000000000000000000000000000000000000000000000000000000815260040161094290611349565b60405180910390fd5b600060149054906101000a900460ff161561099b576040517f08c379a0000000000000000000000000000000000000000000000000000000008152600401610992906113db565b60405180910390fd5b600460008154809291906109ae906112b5565b919050555060405180606001604052808381526020018273ffffffffffffffffffffffffffffffffffffffff168152602001600015158152506002600060045481526020019081526020016000206000820151816000019081610a119190611607565b5060208201518160010160006101000a81548173ffffffffffffffffffffffffffffffffffffffff021916908373ffffffffffffffffffffffffffffffffffffffff16021790555060408201518160010160146101000a81548160ff0219169083151502179055509050505050565b6001600060146101000a81548160ff0219169083151502179055504260068190555080603c610aaf91906116d9565b600654610abc9190611733565b60078190555050565b60065481565b60045481565b60055481565b60006007544211610af75742600754610af09190611789565b9050610afc565b600090505b90565b6002602052806000526040600020600091509050806000018054610b229061142a565b80601f0160208091040260200160405190810160405280929190818152602001828054610b4e9061142a565b8015610b9b5780601f10610b7057610100808354040283529160200191610b9b565b820191906000526020600020905b815481529060010190602001808311610b7e57829003601f168201915b5050505050908060010160009054906101000a900473ffffffffffffffffffffffffffffffffffffffff16908060010160149054906101000a900460ff16905083565b60008060146101000a81548160ff0219169083151502179055506000600381905550600060048190555060006006819055506000600781905550565b60075481565b60008054906101000a900473ffffffffffffffffffffffffffffffffffffffff1681565b6000604051905090565b600080fd5b600080fd5b6000819050919050565b610c6b81610c58565b8114610c7657600080fd5b50565b600081359050610c8881610c62565b92915050565b600060208284031215610ca457610ca3610c4e565b5b6000610cb284828501610c79565b91505092915050565b60008115159050919050565b610cd081610cbb565b82525050565b6000602082019050610ceb6000830184610cc7565b92915050565b610cfa81610c58565b82525050565b6000602082019050610d156000830184610cf1565b92915050565b600080fd5b600080fd5b6000601f19601f8301169050919050565b7f4e487b7100000000000000000000000000000000000000000000000000000000600052604160045260246000fd5b610d6e82610d25565b810181811067ffffffffffffffff82111715610d8d57610d8c610d36565b5b80604052505050565b6000610da0610c44565b9050610dac8282610d65565b919050565b600067ffffffffffffffff821115610dcc57610dcb610d36565b5b610dd582610d25565b9050602081019050919050565b82818337600083830152505050565b6000610e04610dff84610db1565b610d96565b905082815260208101848484011115610e2057610e1f610d20565b5b610e2b848285610de2565b509392505050565b600082601f830112610e4857610e47610d1b565b5b8135610e58848260208601610df1565b91505092915050565b60008060408385031215610e7857610e77610c4e565b5b600083013567ffffffffffffffff811115610e9657610e95610c53565b5b610ea285828601610e33565b925050602083013567ffffffffffffffff811115610ec357610ec2610c53565b5b610ecf85828601610e33565b9150509250929050565b600081519050919050565b600082825260208201905092915050565b60005b83811015610f13578082015181840152602081019050610ef8565b83811115610f22576000848401525b50505050565b6000610f3382610ed9565b610f3d8185610ee4565b9350610f4d818560208601610ef5565b610f5681610d25565b840191505092915050565b6000608082019050610f766000830187610cf1565b8181036020830152610f888186610f28565b9050610f976040830185610cf1565b8181036060830152610fa98184610f28565b905095945050505050565b600073ffffffffffffffffffffffffffffffffffffffff82169050919050565b6000610fdf82610fb4565b9050919050565b610fef81610fd4565b8114610ffa57600080fd5b50565b60008135905061100c81610fe6565b92915050565b6000806040838503121561102957611028610c4e565b5b600083013567ffffffffffffffff81111561104757611046610c53565b5b61105385828601610e33565b925050602061106485828601610ffd565b9150509250929050565b61107781610fd4565b82525050565b600060608201905081810360008301526110978186610f28565b90506110a6602083018561106e565b6110b36040830184610cc7565b949350505050565b60006020820190506110d0600083018461106e565b92915050565b7f456c656374696f6e20446179206973206f766572000000000000000000000000600082015250565b600061110c601483610ee4565b9150611117826110d6565b602082019050919050565b6000602082019050818103600083015261113b816110ff565b9050919050565b7f566f74696e67206973206e6f74206163746976652e0000000000000000000000600082015250565b6000611178601583610ee4565b915061118382611142565b602082019050919050565b600060208201905081810360008301526111a78161116b565b9050919050565b7f566f746572206e6f7420616c6c6f77656420746f20766f746500000000000000600082015250565b60006111e4601983610ee4565b91506111ef826111ae565b602082019050919050565b60006020820190508181036000830152611213816111d7565b9050919050565b7f566f74657220616c726561647920766f74656400000000000000000000000000600082015250565b6000611250601383610ee4565b915061125b8261121a565b602082019050919050565b6000602082019050818103600083015261127f81611243565b9050919050565b7f4e487b7100000000000000000000000000000000000000000000000000000000600052601160045260246000fd5b60006112c082610c58565b91507fffffffffffffffffffffffffffffffffffffffffffffffffffffffffffffffff82036112f2576112f1611286565b5b600182019050919050565b7f436f6e746163742041646d696e20746f20636f6e74696e756500000000000000600082015250565b6000611333601983610ee4565b915061133e826112fd565b602082019050919050565b6000602082019050818103600083015261136281611326565b9050919050565b7f566f74696e67206973206163746976652e2052657365742076616c756573207460008201527f6f20636f6e74696e756500000000000000000000000000000000000000000000602082015250565b60006113c5602a83610ee4565b91506113d082611369565b604082019050919050565b600060208201905081810360008301526113f4816113b8565b9050919050565b7f4e487b7100000000000000000000000000000000000000000000000000000000600052602260045260246000fd5b6000600282049050600182168061144257607f821691505b602082108103611455576114546113fb565b5b50919050565b60008190508160005260206000209050919050565b60006020601f8301049050919050565b600082821b905092915050565b6000600883026114bd7fffffffffffffffffffffffffffffffffffffffffffffffffffffffffffffffff82611480565b6114c78683611480565b95508019841693508086168417925050509392505050565b6000819050919050565b60006115046114ff6114fa84610c58565b6114df565b610c58565b9050919050565b6000819050919050565b61151e836114e9565b61153261152a8261150b565b84845461148d565b825550505050565b600090565b61154761153a565b611552818484611515565b505050565b5b818110156115765761156b60008261153f565b600181019050611558565b5050565b601f8211156115bb5761158c8161145b565b61159584611470565b810160208510156115a4578190505b6115b86115b085611470565b830182611557565b50505b505050565b600082821c905092915050565b60006115de600019846008026115c0565b1980831691505092915050565b60006115f783836115cd565b9150826002028217905092915050565b61161082610ed9565b67ffffffffffffffff81111561162957611628610d36565b5b611633825461142a565b61163e82828561157a565b600060209050601f831160018114611671576000841561165f578287015190505b61166985826115eb565b8655506116d1565b601f19841661167f8661145b565b60005b828110156116a757848901518255600182019150602085019450602081019050611682565b868310156116c457848901516116c0601f8916826115cd565b8355505b6001600288020188555050505b505050505050565b60006116e482610c58565b91506116ef83610c58565b9250817fffffffffffffffffffffffffffffffffffffffffffffffffffffffffffffffff048311821515161561172857611727611286565b5b828202905092915050565b600061173e82610c58565b915061174983610c58565b9250827fffffffffffffffffffffffffffffffffffffffffffffffffffffffffffffffff0382111561177e5761177d611286565b5b828201905092915050565b600061179482610c58565b915061179f83610c58565b9250828210156117b2576117b1611286565b5b82820390509291505056fea2646970667358221220d1b0b41d4198571cfffcae676060ad0c65de0bc91a1c89499f272dc4816404e464736f6c634300080f0033",
  "immutableReferences": {},
  "source": "// SPDX-License-Identifier: MIT\npragma solidity 0.8.15;\n\ncontract Election {\n    address public admin;\n    bool public active;\n\n    // Candidate Model\n    struct Candidate {\n        uint256 candidateId;\n        string name;\n        uint256 voteCount;\n        string url;\n    }\n\n    // Voter Model\n    struct Voter {\n        string _name;\n        address _address;\n        bool _vote;\n    }\n\n    // Store candidates\n    mapping(uint256 => Candidate) public candidates;\n    // Store voters\n    mapping(uint256 => Voter) public voters;\n    uint256 public registeredCandidates = 0;\n    uint256 public registeredVoters = 0;\n    uint256 public voteCount = 0;\n    uint256 public start;\n    uint256 public end;\n\n    constructor() {\n        admin = msg.sender;\n\n        // addCandidate(\n        //     \"Donald Trump\",\n        //     \"https://upload.wikimedia.org/wikipedia/commons/5/56/Donald_Trump_official_portrait.jpg\"\n        // );\n        // addCandidate(\n        //     \"Joe Biden\",\n        //     \"https://upload.wikimedia.org/wikipedia/commons/6/68/Joe_Biden_presidential_portrait.jpg\"\n        // );\n\n        // addVoter(\"John Doe\", 0xAbBf685fe31772e7A59bE66907063AfEe564A5fe);\n        // addVoter(\"Aditi Wolf\", 0x925D459E126E874925Cba0c3eaa8FA92824F41d6);\n        // addVoter(\"Kaiden Begum\", 0x8f4fe42Fb4E9672D66a034Dd19D300E7DE5c3f4C);\n        // addVoter(\"Caius Mcneill\", 0xa814Fab72a6e34851cc38460b4c10Eca9ECF3539);\n        // addVoter(\"Ayah Farmer\", 0x4Fd59A303AAD7f80ff4910cD6636C49797CdFc3F);\n        // addVoter(\"Lilith Sullivan\", 0x9E1AcCC7E6f1aa7fd620ddC7a324409bfA49606B);\n        // addVoter(\"Shaunna Rojas\", 0xaA375f2B9711A8f75d20EE353C9E726Fe5B80541);\n\n        // active = true;\n\n        // start = block.timestamp;\n        // end = start + (60 * 15);\n    }\n\n    modifier onlyAdmin() {\n        require(admin == msg.sender, \"Contact Admin to continue\");\n        _;\n    }\n\n    modifier isActive() {\n        require(!active, \"Voting is active. Reset values to continue\");\n        _;\n    }\n\n    function addCandidate(string memory _name, string memory _url)\n        public\n        onlyAdmin\n        isActive\n    {\n        registeredCandidates++;\n        candidates[registeredCandidates] = Candidate(\n            registeredCandidates,\n            _name,\n            0,\n            _url\n        );\n    }\n\n    function addVoter(string memory _name, address _voterAddress)\n        public\n        onlyAdmin\n        isActive\n    {\n        registeredVoters++;\n        voters[registeredVoters] = Voter(_name, _voterAddress, false);\n    }\n\n    function vote(uint256 _candidateId) public {\n        require(block.timestamp <= end, \"Election Day is over\");\n\n        require(active, \"Voting is not active.\");\n\n        uint256 index = getVoterIndex();\n        require(\n            voters[index]._address != address(0x0),\n            \"Voter not allowed to vote\"\n        );\n\n        require(!voters[index]._vote, \"Voter already voted\");\n        voters[index]._vote = true;\n        candidates[_candidateId].voteCount++;\n        voteCount++;\n    }\n\n    function getVoterIndex() public view returns (uint256 _voterIndex) {\n        uint256 voterIndex;\n        for (uint256 i = 1; i <= registeredVoters; i++) {\n            if (voters[i]._address == msg.sender) {\n                voterIndex = i;\n            }\n        }\n        return voterIndex;\n    }\n\n    function setState() public {\n        active = !active;\n    }\n\n    function startElection(uint256 time) public {\n        active = true;\n        start = block.timestamp;\n        end = start + (60 * time); //time on minutes\n    }\n\n    function resetElection() public {\n        active = false;\n        registeredCandidates = 0;\n        registeredVoters = 0;\n        start = 0;\n        end = 0;\n    }\n\n    function getTimeLeft() public view returns (uint256) {\n        if (block.timestamp <= end) return end - block.timestamp;\n        else return 0;\n    }\n}\n",
  "sourcePath": "/home/carlos/Dev/portfolio/vote/blockchain/contracts/Election.sol",
  "compiler": {
    "name": "solc",
    "version": "0.8.15+commit.e14f2714.Emscripten.clang"
  },
  "schemaVersion": "3.4.4",
  "updatedAt": "2022-07-30T01:32:39.769Z",
  "networkType": "ethereum",
  "devdoc": {
    "kind": "dev",
    "methods": {},
    "version": 1
  },
  "userdoc": {
    "kind": "user",
    "methods": {},
    "version": 1
  }
}